:020000040800F2
:1000000000800120D51A0008251B0008251B0008C8
:10001000251B0008251B0008251B00080000000008
:10002000000000000000000000000000251B000888
:10003000251B000800000000251B0008791A000895
:10004000251B0008251B0008251B0008251B000890
:10005000251B0008251B0008251B0008251B000880
:10006000251B0008251B0008251B0008251B000870
:10007000251B0008251B0008251B0008251B000860
:10008000251B0008251B0008251B00080000000098
:10009000000000000000000000000000851A0008B9
:1000A000251B0008251B0008251B0008251B000830
:1000B000251B0008251B0008251B0008251B000820
:1000C000251B0008251B0008251B0008251B000810
:1000D000251B0008251B0008251B00080000000048
:1000E000251B0008251B0008251B00080000000038
:1000F000000000000000000000000000251B0008B8
:1001000000000000251B0008251B0008251B000817
:1001100000000000000000000000000000000000DF
:10012000251B0008251B0008251B0008251B0008AF
:10013000251B000800000000000000000000000077
:10014000000000000000000000000000251B000867
:10015000251B0008251B0008251B0008251B00087F
:10016000251B0008251B00080000000000000000FF
:10017000000000000000000000000000000000007F
:1001800000000000251B0008000000000000000027
:04019000251B000823
:10019400044B05481B1A062B02D9044B03B118471C
:1001A400704700BF0F0000200C000020000000007A
:1001B40005490648091A891001EBD171491002D08A
:1001C400034B03B1184770470C0000200C000020BB
:1001D4000000000010B5064C237843B9FFF7D8FFA0
:1001E400044B13B10448AFF300800123237010BD06
:1001F4000C00002000000000281B000808B5084B74
:100204001BB108490848AFF300800848036813B9D4
:10021400BDE80840CCE7064B002BF9D09847F7E738
:100224000000000010000020281B00080C00002023
:100234000000000070B50F4E0F4D761BB61018BFAE
:10024400002405D0013455F8043B9847A642F9D15F
:100254000A4E0B4D761B01F065FCB61018BF002446
:1002640006D0013455F8043B9847A642F9D170BD35
:1002740070BD00BF9C1B00089C1B0008A01B00084D
:100284009C1B000853B94AB9002908BF00281CBFA9
:100294004FF0FF314FF0FF3000F07EB9ADF1080CA4
:1002A4006DE904CE00F006F8DDF804E0DDE9022390
:1002B40004B070472DE9F0478C460E460446089D6D
:1002C400002B50D18A4217466CD9B2FA82FEBEF195
:1002D400000F0BD0CEF1200420FA04F401FA0EF63C
:1002E40044EA060C02FA0EF700FA0EF44FEA174934
:1002F400220CBCFBF9F01FFA87F809FB10C642EA8E
:10030400064600FB08F3B34209D9F61900F1FF329F
:1003140080F02281B34240F21F8102383E44F61A33
:10032400A2B2B6FBF9F309FB136642EA064403FBE7
:1003340008F8A04509D9E41903F1FF3280F00A81D5
:10034400A04540F20781023B3C44C8EB040443EA65
:1003540000400021002D62D024FA0EF400232C600A
:100364006B60BDE8F0878B4207D9002D55D0002182
:1003740085E841000846BDE8F087B3FA83F1002917
:1003840040F09080B34202D3824200F2F880841A93
:1003940066EB03060120B446002D40D085E810101A
:1003A400BDE8F08712B90127B7FBF2F7B7FA87FE69
:1003B400BEF1000F35D1F31B4FEA17481FFA87FC33
:1003C4000121B3FBF8F0220C08FB103642EA064682
:1003D4000CFB00F3B34207D9F61900F1FF3202D245
:1003E400B34200F2CE801046F61AA2B2B6FBF8F37E
:1003F40008FB136642EA06440CFB03FCA44507D938
:10040400E41903F1FF3202D2A44500F2B580134689
:10041400CCEB040443EA00409CE729462846BDE8A7
:10042400F087CEF1200106FA0EF307FA0EF720FA50
:1004340001F94FEA1748CE4049EA0309B6FBF8FA36
:100444004FEA194408FB1A661FFA87FC44EA06437C
:100454000AFB0CF29A4200FA0EF40AD9DB190AF1EB
:10046400FF3180F087809A4240F28480AAF1020A28
:100474003B449B1A1FFA89F9B3FBF8F108FB1133CB
:1004840049EA034301FB0CF69E4207D9DB1901F14B
:10049400FF326BD29E4269D902393B449B1B41EA2D
:1004A4000A418EE7C1F1200E22FA0EF48B40234359
:1004B40020FA0EF706FA01F44FEA134C26FA0EF668
:1004C4003C43B6FBFCF9270C0CFB19661FFA83F8B6
:1004D40047EA064609FB08F7B74202FA01F200FAB6
:1004E40001FA08D9F61809F1FF3041D2B7423FD9D1
:1004F400A9F102091E44F61BA0B2B6FBFCF40CFBE6
:10050400146640EA064704FB08F8B84507D9FF1803
:1005140004F1FF3028D2B84526D9023C1F4444EAEE
:100524000940C8EB0707A0FB02894F4544464E46E5
:1005340014D329D065B3BAEB040367EB060707FAB3
:100544000EFECB40CF404EEA030385E8880000212D
:10055400BDE8F0871346F8E61046E0E6B8EB02047F
:1005640069EB03060138E5E70446D8E7114695E749
:100574008146C0E78A467CE7023B3C4448E708469C
:100584000AE702383E442FE7C245E7D33E46D1E7A7
:100594002946BDE8F08700BF704700BF2DE9F84346
:1005A400044601680B6923F44052C36813430B618A
:1005B4000068C36823F4164222F00C02A168236980
:1005C400194363691943E3690B431343C360216807
:1005D4004B6923F44072A36913434B61E369B3F598
:1005E400004F40F0BB80276803F1804303F51043BC
:1005F4009F4203D003F580639F4257D101F0A8F8CE
:1006040000EB800000EB800065686D00B0FBF5F541
:10061400AB4EA6FB05356D092D0101F099F800EBF1
:10062400800000EB800063685B00B0FBF3F901F02D
:100634008FF800EB800000EB800063685B00B0FB88
:10064400F3F3A6FB03235B094FF0640808FB139341
:10065400DB003233A6FB03235B095B0003F4F8736E
:100664001D4401F075F800EB800000EB8000636826
:100674005B00B0FBF3F901F06BF800EB800000EBDA
:10068400800063685B00B0FBF3F3A6FB03235B0904
:1006940008FB13984FEAC80808F13208A6FB08368D
:1006A400C6F342163544BD60BDE8F88301F040F856
:1006B40000EB800000EB800065686D00B0FBF5F591
:1006C4007F4EA6FB05356D092D0101F031F800EBD5
:1006D400800000EB800063685B00B0FBF3F901F07D
:1006E40027F800EB800000EB800063685B00B0FB40
:1006F400F3F3A6FB03235B094FF0640808FB139391
:10070400DB003233A6FB03235B095B0003F4F873BD
:100714001D4401F00DF800EB800000EB80006368DD
:100724005B00B0FBF3F901F003F800EB800000EB91
:10073400800063685B00B0FBF3F3A6FB03235B0953
:1007440008FB13984FEAC80808F13208A6FB0836DC
:10075400C6F342163544BD60BDE8F8832668594B9C
:100764009E4203D003F580639E4254D100F0F0FF13
:1007740000EB800000EB80006568AD00B0FBF5F590
:100784004F4FA7FB05356D092D0100F0E1FF00EB8C
:10079400800000EB800063689B00B0FBF3F800F07E
:1007A400D7FF00EB800000EB800063689B00B0FB88
:1007B400F3F3A7FB03235B094FF0640909FB1383DD
:1007C4001B013233A7FB03235B0903F0F0031D4431
:1007D40000F0BEFF00EB800000EB800063689B002C
:1007E400B0FBF3F800F0B4FF00EB800000EB8000F6
:1007F40063689B00B0FBF3F3A7FB03235B0909FBCE
:1008040013831B013233A7FB0323C3F343131D4498
:10081400B560BDE8F88300F08BFF00EB800000EBCF
:1008240080006568AD00B0FBF5F5254FA7FB0535E5
:100834006D092D0100F07CFF00EB800000EB8000CF
:1008440063689B00B0FBF3F800F072FF00EB8000DC
:1008540000EB800063689B00B0FBF3F3A7FB03236A
:100864005B094FF0640909FB13831B013233A7FBB7
:1008740003235B0903F0F0031D4400F059FF00EB70
:10088400800000EB800063689B00B0FBF3F800F08D
:100894004FFF00EB800000EB800063689B00B0FB1F
:1008A400F3F3A7FB03235B0909FB13831B01323317
:1008B400A7FB0323C3F343131D44B560BDE8F883CA
:1008C4001F85EB510010014068B310B5044690F841
:1008D400393013F0FF0F04D1002380F8383000F0D2
:1008E4007BFA242384F839302268D36823F4005334
:1008F400D3602046FFF752FE2268136923F4904325
:1009040013612268536923F02A0353612268D36870
:1009140043F40053D3600020E063202384F839308B
:1009240084F83A3010BD0120704700BF10B504466A
:100934000E4B18784FF47A73B3FBF0F30C4A10683B
:10094400B0FBF3F000F0A8F858B90F2C0BD8002234
:1009540021464FF0FF3000F061F8064B1C60002088
:1009640010BD012010BD012010BD00BF04000020F7
:10097400080000200000002008B50B4B1A6842F460
:1009840000721A601A6842F480621A601A6842F4AB
:1009940080721A60032000F02FF80020FFF7C6FFD2
:1009A40000F0E6FE002008BD003C0240034A136844
:1009B400034909780B441360704700BF28000020E6
:1009C40004000020014B1868704700BF2800002075
:1009D40038B50446FFF7F6FF0546B4F1FF3F02D0F1
:1009E400044B1B781C44FFF7EDFF401B8442FAD8EC
:1009F40038BD00BF04000020074AD36823F4E06335
:100A04001B041B0C000200F4E060184340F0BF60BC
:100A140040F40030D060704700ED00E030B4164B75
:100A2400DB68C3F30223C3F10704042C28BF0424A6
:100A34001D1D062D01D9DD1E00E00025012303FA4A
:100A440004F4013C2140A940AB40013B1A400A4355
:100A5400002806DA00F00F001201D2B2074B1A5434
:100A640007E01201D2B200F1604000F5614080F865
:100A7400002330BC704700BF00ED00E014ED00E03F
:100A8400420900F01F00012303FA00F0014B43F870
:100A94002200704700E100E00138B0F1807F0AD203
:100AA400064B5860F021064A82F823100020986013
:100AB40007221A6070470120704700BF10E000E071
:100AC40000ED00E0042805D1054A136843F004034F
:100AD40013607047024A136823F0040313607047DD
:100AE40010E000E0704700BF08B5FFF7FBFF08BD4A
:100AF4002DE9F0478AB0002400945D4B1A6B42F054
:100B040004021A631A6B02F004020092009A019420
:100B14001A6B42F080021A631A6B02F0800201928F
:100B2400019A02941A6B42F001021A631A6B02F0E2
:100B340001020292029A03941A6B42F002021A63AF
:100B44001A6B02F002020392039A04941A6B42F0A5
:100B540008021A631B6B03F008030493049BDFF879
:100B640024A122464FF4FC61504600F0ADFA414EF8
:100B740022464FF48E61304600F0A6FADFF8088171
:100B840022464FF42071404600F09EFA4FF4005381
:100B94000593394B0693079405A9404600F044F9A0
:100BA40041F67F53059303250695079405A940460E
:100BB40000F03AF949F6130305930695079405A93D
:100BC400504600F031F9202305934FF00109CDF888
:100BD40018900794089405A9504600F025F94FF49D
:100BE400F8630593CDF8189002270797089505A98F
:100BF400504600F019F94FF28723059306950794A0
:100C040005A9304600F010F94FF48E630593CDF832
:100C140018900797089505A9304600F005F94FF498
:100C240020730593CDF818900797089505A94046B9
:100C340000F0FAF8042305930695079405A90F48D4
:100C440000F0F2F84FF4807305930D4B0693079769
:100C540005A9304600F0E8F8224621461720FFF7A0
:100C6400DDFE1720FFF70CFF0AB0BDE8F08700BFD8
:100C7400003802400004024000002110000C024031
:100C8400000031100000024000080240FEE700BFEF
:100C940000B595B0002201922A4B196C41F08051A5
:100CA40019641B6C03F080530193019B0292264943
:100CB4000B6823F4404343F400430B600B6803F4D4
:100CC40040430293029B0221089101230B931023BA
:100CD4000C930E910F9210934FF4A8731193042365
:100CE40012930723139308A800F026FA18B197214A
:100CF4001648FFF7CBFF0F2303930221049100232F
:100D040005934FF480520692079303A800F05AFC0F
:100D140018B1A5210D48FFF7B9FF00F003FD0C4BF6
:100D2400A3FB00308009FFF7B7FE0420FFF7CAFEDB
:100D3400002211464FF0FF30FFF770FE15B05DF84A
:100D440004FB00BF00380240007000404C1B000848
:100D5400D34D621010B584B0FFF70EFEFFF798FF75
:100D6400FFF7C6FE00F01AF8094A01AB1068516893
:100D740003C312891A80074C01A9204600F03CFEE7
:100D84000549204600F0E2FD204600F06BFDFEE739
:100D9400401B00082C000020581B000808B50B4815
:100DA4000B4B03604FF4E133436000238360C36063
:100DB40003610C2242618361C361FFF785FD18B1B1
:100DC40042210448FFF762FF08BD00BF88000020ED
:100DD40000440040701B00080268104B9A421CD16A
:100DE40000B587B0002300930D4A116C41F4003123
:100DF4001164126C02F400320092009A0C220192E7
:100E040002220292039304930723059301A9054840
:100E140000F00AF807B05DF804FB70470044004096
:100E24000038024000000240F0B583B00024BBE06B
:100E34000123A3400A6803EA0205AB4240F0B380F1
:100E44004A68022A01D0122A10D1E608083650F85E
:100E540026C004F0070297000F22BA402CEA020EC3
:100E64000A69BA404EEA020240F826200268670086
:100E74000326BE40F64302EA060E4A6802F0030265
:100E8400BA404EEA020202604A6802F1FF3EBEF135
:100E9400010F03D9112A01D0122A10D1826806EA5F
:100EA400020ECA68BA404EEA02028260426822EA2E
:100EB40003034A68C2F30012A2401A434260C368A3
:100EC4001E408B68BB403343C3604B6813F0805FA4
:100ED40069D000230193374B5A6C42F480425A6420
:100EE4005B6C03F480430193019BA608B21C324B54
:100EF40053F8222004F003039B000F279F4022EAAB
:100F040007072E4A904211D002F5806290420FD01A
:100F140002F5806290420DD002F5806290420BD0BF
:100F240002F58062904209D1042208E0002206E022
:100F3400012204E0022202E0032200E0072202FA76
:100F440003F33B4302361C4A42F826301C4B1A6812
:100F5400EB4302EA03064F6817F4803F01D045EAE9
:100F64000206174A1660526803EA02064F6817F42D
:100F7400003F01D045EA0206114A5660926803EA2E
:100F840002064F6817F4801F01D045EA02060C4A96
:100F94009660D26813404E6816F4001F01D045EAEB
:100FA4000203074AD36001340F2C7FF641AF03B02C
:100FB400F0BD00BF0038024000380140000002408C
:100FC400003C0140F0B500236DE001229A4002EAA2
:100FD4000104A24266D106685F000325BD40ED43CB
:100FE4002E4006604FEAD30E0EF1080E50F82EC0C4
:100FF40003F00706B6000F2707FA06F62CEA0606E2
:1010040040F82E6086682E408660466826EA020212
:101014004260C2681540C5604FEA930E0EF10205A6
:10102400224A52F8255003F00302920097403D40B3
:101034001F4EB04211D006F58066B0420FD006F5BF
:101044008066B0420DD006F58066B0420BD006F53E
:101054008066B04209D1042608E0002606E0012695
:1010640004E0022602E0032600E0072606FA02F264
:10107400954217D10D4E0EF1020256F8225025EA80
:10108400070746F822700B4D2E68E24306EA020475
:101094002C606C6814406C60AC681440AC60EC6804
:1010A4002240EA6001330F2B8FD9F0BD0038014094
:1010B40000000240003C01400369194201D00120B4
:1010C40070470020704700BF0AB18161704709046E
:1010D4008161704708B5044B5B69034203D0024B3E
:1010E400586100F0D3FC08BD003C01400F49D1F821
:1010F400883043F47003C1F888300D4B1A6842F00D
:1011040001021A60002098601A6822F0847222F4A6
:1011140080321A60074A5A601A6822F480221A60E0
:10112400D8604FF000638B60704700BF00ED00E0B3
:101134000038024010300024002800F0B58170B55A
:1011440082B00446036813F0010F5AD0A04B9B6889
:1011540003F00C03042B0AD09D4B9B6803F00C0393
:10116400082B0DD19A4B5B6813F4800F08D0984B71
:101174001B6813F4003F44D06368002B41D195E110
:101184006368B3F5803F05D1914A136843F4803313
:10119400136015E0B3F5A02F09D18D4B1A6842F402
:1011A40080221A601A6842F480321A6008E0884B80
:1011B4001A6822F480321A601A6822F480221A60B3
:1011C40063687BB1FFF7FEFB054605E0FFF7FAFB1A
:1011D400401B642800F26C817D4B1B6813F4003FB4
:1011E400F4D00EE0FFF7EEFB054605E0FFF7EAFB5F
:1011F400401B642800F25E81754B1B6813F4003FAA
:10120400F4D1236813F0020F50D0714B9B6813F094
:101214000C0F0AD06E4B9B6803F00C03082B16D1FD
:101224006B4B5B6813F4800F11D1694B1B6813F08F
:10123400020F03D0E368012B40F03E81644A136837
:1012440023F0F803216943EAC10313602EE0E36845
:10125400D3B101225F4B1A60FFF7B4FB054605E0EA
:10126400FFF7B0FB401B022800F22881584B1B6893
:1012740013F0020FF4D0564A136823F0F8032169DF
:1012840043EAC103136011E00022524B1A60FFF7D6
:1012940099FB054605E0FFF795FB401B022800F289
:1012A4000F814B4B1B6813F0020FF4D1236813F02A
:1012B400080F26D0636993B10122474B1A60FFF7E8
:1012C40081FB054605E0FFF77DFB401B022800F289
:1012D400F9803F4B5B6F13F0020FF4D011E0002252
:1012E4003D4B1A60FFF76EFB054605E0FFF76AFB0E
:1012F400401B022800F2E880354B5B6F13F0020FAD
:10130400F4D1236813F0040F7CD0314B1B6C13F021
:10131400805F0DD1002301932D4B1A6C42F0805253
:101324001A641B6C03F080530193019B012500E0B8
:1013340000252A4B1B6813F4807F13D1274A1368B6
:1013440043F480731360FFF73DFB064605E0FFF7A7
:1013540039FB801B022800F2B980204B1B6813F470
:10136400807FF4D0A368012B05D1194A136F43F091
:101374000103136714E0052B09D1154B1A6F42F0D2
:1013840004021A671A6F42F001021A6708E0104B50
:101394001A6F22F001021A671A6F22F004021A6708
:1013A400A3688BB1FFF70EFB064607E0FFF70AFBC5
:1013B400801B41F28833984200F28A80044B1B6FF1
:1013C40013F0020FF2D017E0FFF7FCFA06460EE026
:1013D4000038024000004742800E4742007000403F
:1013E400FFF7F0FA801B41F28833984272D8404BE1
:1013F4001B6F13F0020FF3D125B13D4A136C23F098
:1014040080531364A369002B66D0394A926802F0B2
:101414000C02082A62D0022B33D10022354B1A6009
:10142400FFF7D0FA054604E0FFF7CCFA401B022888
:1014340056D82F4B1B6813F0007FF5D1E269236A5D
:101444001343626A43EA8213A26A5208013A43EAE6
:101454000243E26A43EA0263254A53600122254BB0
:101464001A60FFF7AFFA044604E0FFF7ABFA001B7B
:10147400022837D81E4B1B6813F0007FF5D00020DC
:1014840033E000221B4B1A60FFF79CFA044604E089
:10149400FFF798FA001B022826D8154B1B6813F097
:1014A400007FF5D1002020E00120704701201CE0DE
:1014B40003201AE0032018E0012016E0032014E0C2
:1014C400032012E0032010E003200EE003200CE0D0
:1014D40003200AE0032008E0002006E0012004E0E5
:1014E400032002E0032000E0032002B070BD00BF2F
:1014F400003802406000474238B52F4B9B6803F028
:101504000C03042B55D0082B01D02C4838BD2A4B92
:101514005A6802F03F025B6813F4800F20D0264B18
:101524005B68C3F38813DC000025690141EAD461D8
:101534006001041B61EB0505A90141EA9461A00166
:10154400001B61EB0501C01841F100014B0243EAA5
:10155400D0534402204619460023FEF793FE1FE0B1
:10156400154B5B68C3F38813DC000025690141EA6D
:10157400D4616001041B61EB0505A90141EA946192
:10158400A001001B61EB0501C01841F100018B02B1
:1015940043EA90538402204619460023FEF772FE64
:1015A400054B5B68C3F3014301335B00B0FBF3F00D
:1015B40038BD034838BD00BF003802400024F400A1
:1015C40000127A00002800F0978070B50446514B51
:1015D4001B6803F00F038B4208D2CBB24D4A137041
:1015E400136803F00F03994240F08880236813F0D6
:1015F400020F17D013F0040F04D0474A936843F442
:10160400E0539360236813F0080F04D0424A9368B0
:1016140043F4604393604048836823F0F002A36876
:10162400134383600D46236813F0010F2FD06268C3
:10163400012A05D1384B1B6813F4003F0ED15FE03B
:10164400931E012B05D8344B1B6813F0007F05D182
:1016540058E0314B1B6813F0020F55D02E498B68AC
:1016640023F0030313438B60FFF7ACF9064606E04F
:10167400FFF7A8F9801B41F28833984246D8264BDD
:101684009B6803F00C036268B3EB820FF0D1214B2B
:101694001B6803F00F039D4207D2EAB21D4B1A7078
:1016A4001B6803F00F039D4232D1236813F0040F2B
:1016B40006D019498B6823F4E052E36813438B6026
:1016C400236813F0080F07D0134A936823F4604388
:1016D400216943EAC1039360FFF70EFF0E4B9B6839
:1016E400C3F303130D4AD35CD8400D4B186000209C
:1016F400FFF71CF9002070BD01207047012070BD68
:10170400012070BD012070BD012070BD032070BD9B
:10171400012070BD003C0240003802407C1B0008E0
:1017240008000020014B1868704700BF0800002023
:1017340008B5FFF7F7FF044B9B68C3F38223034A02
:10174400D35CD84008BD00BF003802408C1B0008A1
:1017540008B5FFF7E7FF044B9B68C3F34233034A22
:10176400D35CD84008BD00BF003802408C1B000881
:1017740008B50720FFF740F9002211466FF00B006F
:10178400FFF74CF9002211466FF00A00FFF746F903
:10179400002211466FF00900FFF740F900221146BC
:1017A4006FF00400FFF73AF9002211466FF00300CE
:1017B400FFF734F9002211466FF00100FFF72EF90C
:1017C400002211464FF0FF30FFF728F908BD00BF93
:1017D400F0B4154A02601023838082604FF4806164
:1017E4008181124B03614FF48074848283614FF4CE
:1017F400007484830E4D05628027878482624026AC
:10180400868503638786836386870564A0F84440DE
:101814008364A0F84C1002652023A0F85430002300
:1018240080F85A30F0BC70470004024000000240C7
:101834000008024030B587B0054612B10123029377
:1018440001E0002302930023039306AC44F8141D23
:101854002846FFF7B7FB21462846FFF7E5FA07B00D
:1018640030BD00BF38B5B0F85830B3F5807F08D02C
:101874004FF48073A0F85830002380F85A3000F0F9
:1018840017F80A4C002240212046FFF7D3FF4021DD
:101894002046FFF711FC0546012240212046FFF7B0
:1018A400C9FFB5FA85F0400938BD00BF0000024009
:1018B40070B50546B0F8584090F85A600122B0F867
:1018C4005410006DFFF700FC2846FFF7CBFF0028FB
:1018D400FAD185F85A60A5F8584000241AE0B5F802
:1018E400582095F85A301343234113F0010F08D0C0
:1018F40005EBC4030122998855F83400FFF7E4FB93
:1019040007E005EBC4030022998855F83400FFF77B
:10191400DBFB0134092CE2DD0022B5F85410286DFC
:10192400FFF7D2FB002385F85A3070BD38B5044662
:101934000D460120FFF74CF884F85A504FF4007319
:10194400A4F858302046FFF7B3FF38BD38B5054634
:101954000C4603E02846FFF7E9FF0134217800290B
:10196400F8D138BD10B52023A0F858304B798A79C6
:10197400D200C97942EA031343EA810380F85A305A
:10198400FFF796FF10BD00BF70B506460D46FFF782
:10199400E9FF0520FFF71CF8002407E0294630463C
:1019A400FFF7E0FF0120FFF713F80134022CF5DD07
:1019B40070BD00BF10B50823A0F858308B78CA78E2
:1019C4005200097942EA83030B4380F85A30FFF747
:1019D4006FFF10BD08B50122A0F85820002280F83E
:1019E4005A20FFF765FF08BD08B50223A0F8583058
:1019F400FFF75EFF08BD00BF38B504460D46FFF78C
:101A0400E7FE1420FEF7E4FF29462046FFF7BCFF5B
:101A14000120FEF7DDFF29462046FFF7CBFF01201A
:101A2400FEF7D6FF2046FFF7D5FF0120FEF7D0FFD3
:101A34002046FFF7D9FF38BD10B51023A0F8583061
:101A44000C7A4B7A9B0043EAC40380F85A30FFF7C0
:101A54002FFF10BD00B585B0002301930293ADF8AC
:101A64000C308DF80D1001A9FFF7E6FF05B05DF805
:101A740004FB00BF08B5FEF799FFFFF735F808BD72
:101A840008B54FF48070FFF725FB08BDB0F5807FE3
:101A940016D108B54FF480710A48FFF70DFB48B121
:101AA400012220210848FFF70FFB00210748FFF718
:101AB400D1FF08BD002220210348FFF705FB08BD24
:101AC400704700BF00040240000002402C000020C8
:101AD400DFF834D0002103E00C4B5B584350043151
:101AE4000B480C4B42189A42F6D30B4A02E00023EF
:101AF40042F8043B094B9A42F9D3FFF7F7FAFEF791
:101B040099FBFFF727F9704700800120A41B000808
:101B1400000000200C0000200C000020C800002061
:101B2400FEE70000F8B500BFF8BC08BC9E4670474D
:0C1B3400F8B500BFF8BC08BC9E46704726
:101B40000100010101010100000000005372632F38
:101B50006D61696E2E63000048656C6C6F20576F75
:101B6000726C64202120492077696C6C00000000B1
:101B70005372632F75736172742E6300000000004E
:101B8000000000000102030406070809000000002D
:041B90000102030447
:081B940024E7FF7F01000000BF
:041B9C00010200083A
:041BA000D90100085F
:0C1BA40010000000010000000024F4000C
:0400000508001AD500
:00000001FF
