:020000040800F2
:100000000080012065130008B5130008B51300082F
:10001000B5130008B5130008B51300080000000070
:10002000000000000000000000000000FD120008B9
:10003000B5130008000000000113000805130008B4
:10004000B5130008B5130008B5130008B513000870
:10005000B5130008B5130008B5130008B513000860
:10006000B5130008B5130008B5130008B513000850
:10007000B5130008B5130008B5130008B513000840
:10008000B5130008B5130008B51300080000000000
:10009000000000000000000000000000B513000890
:1000A000B5130008B5130008B5130008B513000810
:1000B000B5130008B5130008B5130008B513000800
:1000C000B5130008B5130008B5130008B5130008F0
:1000D000B5130008B5130008B513000800000000B0
:1000E000B5130008B5130008B513000800000000A0
:1000F000000000000000000000000000B513000830
:1001000000000000B5130008B5130008B51300087F
:1001100000000000000000000000000000000000DF
:10012000B5130008B5130008B5130008B51300088F
:10013000B5130008000000000000000000000000EF
:10014000000000000000000000000000B5130008DF
:10015000B5130008B5130008B5130008B51300085F
:10016000B5130008B51300080000000000000000EF
:10017000000000000000000000000000000000007F
:1001800000000000B513000800000000000000009F
:04019000B51300089B
:1001940053B94AB9002908BF00281CBF4FF0FF31EA
:1001A4004FF0FF3000F00CB8ADF1080C6DE904CE4F
:1001B40001F024F9DDF804E0DDE9022304B070471E
:1001C400704700BF10B5054C227832B9044B13B107
:1001D4000448AFF300800123237010BD0C000020FD
:1001E40000000000B416000808B5034B1BB1034916
:1001F4000348AFF3008008BD000000001000002099
:10020400B4160008026811692DE9F843C5688368CB
:1002140021F440510446294300691161D16865699C
:100224000343E06921F416412B4321F00C010343FD
:100234000B43D3605369A16923F440730B43B0F5B6
:10024400004F53619B4B00F09A809A4259D003F5BA
:1002540080639A4255D000F041FF974F636800EBEA
:10026400800000EB80009B00B0FBF3F3A7FB0323AB
:100274005B091D0100F032FF666800EB800000EBB3
:100284008000B600B0FBF6F600F028FF636800EBD0
:10029400800000EB80009B00B0FBF3F3A7FB03237B
:1002A4005B094FF0640909FB13631B013233A7FB9D
:1002B40003235B0903F0F00600F010FF626800EB13
:1002C400800000EB80009300B0FBF3F800F006FF21
:1002D400D4E9002300EB80009B0000EB8000B0FB1E
:1002E400F3F0A7FB0030430909FB13831B013233EE
:1002F400A7FB0313C3F3431333432B449360BDE8B9
:10030400F88300F0FBFE6C4F636800EB800000EBA9
:1003140080009B00B0FBF3F3A7FB03235B091D01E3
:1003240000F0ECFE666800EB800000EB8000B60095
:10033400B0FBF6F600F0E2FE636800EB800000EB31
:1003440080009B00B0FBF3F3A7FB03234FF0640989
:100354005B0909FB13631B013233A7FB03235B090E
:1003640003F0F00600F0CAFE626800EB8000930020
:1003740000EB8000B0FBF3F800F0C0FEA8E79A425F
:1003840059D003F580639A4255D000F0A7FE4A4F36
:10039400636800EB800000EB80005B00B0FBF3F3CC
:1003A400A7FB03235B091E0100F098FE656800EBC0
:1003B400800000EB80006D00B0FBF5F500F08EFED0
:1003C400636800EB800000EB80005B00B0FBF3F39C
:1003D400A7FB03235B094FF0640909FB1353DB00FC
:1003E4003233A7FB03231B0903F4F87500F076FEF0
:1003F400626800EB800000EB80005300B0FBF3F870
:1004040000F06CFED4E9002300EB800000EB8000D8
:100414005B00B0FBF3F3A7FB03135B0909FB138336
:10042400DB003233A7FB0313C3F3421333442B44DF
:100434009360BDE8F88300F061FE1F4F636800EB32
:10044400800000EB80005B00B0FBF3F3A7FB032309
:100454005B091E0100F052FE656800EB800000EBB2
:1004640080006D00B0FBF5F500F048FE636800EB1A
:10047400800000EB80005B00B0FBF3F3A7FB0323D9
:100484004FF064095B0909FB1353DB003233A7FB0C
:1004940003231B0903F4F87500F030FE626800EBD7
:1004A4008000530000EB8000B0FBF3F800F026FE60
:1004B400A8E700BF001001401F85EB5160B338B5B9
:1004C40090F83930044603F0FF0203B32268242372
:1004D40084F83930D36823F40053D3602046FFF7FF
:1004E40091FE23681A6922F490421A615A6922F033
:1004F4002A025A61DA680025202142F40052DA60A7
:100504002846E56384F8391084F83A1038BD80F839
:10051400382000F02DFAD9E70120704738B50E4A8B
:100524000E4B12781B6805464FF47A70B0FBF2F05C
:10053400B3FBF0F000F09CF808B90F2D01D90120AD
:1005440038BD0446024629464FF0FF3000F05AF801
:10055400034B20461D6038BD000000200800002029
:100564000400002008B50B4B1A6842F400721A60AC
:100574001A6842F480621A601A6842F480721A603F
:10058400032000F02DF80020FFF7C8FF00F0C6FD9F
:10059400002008BD003C0240034A044B11681B784C
:1005A4000B441360704700BF2800002000000020A7
:1005B400014B1868704700BF2800002038B5044676
:1005C400FFF7F6FF631C054602D0044B1B781C445E
:1005D400FFF7EEFF401BA042FAD338BD0000002015
:1005E400074AD36800024FF6FF0100F4E0600B40B5
:1005F400184340F0BF6040F40030D060704700BF43
:1006040000ED00E0184B30B4DC68C4F30224C4F1FC
:100614000705042D04F1040328BF0425062B18D96B
:10062400033C4FF0FF33A34022EA03024FF0FF33B1
:10063400AB4021EA0303A34013431B010028DBB2B0
:100644000ADB00F1604000F5614080F8003330BC03
:10065400704700221446E9E7044A00F00F00024400
:10066400137630BC704700BF00ED00E0FCEC00E006
:100674000138B0F1807F0ED2084B10B4084C58609A
:10068400F02084F823000022072110469A601960A4
:100694005DF8044B70470120704700BF10E000E094
:1006A40000ED00E0044A136804280CBF43F004037F
:1006B40023F004031360704710E000E0704700BFAC
:1006C40008B5FFF7FBFF08BD2DE970438CB000248B
:1006D4004F4B01941A6B4F4D4F4E42F004021A6374
:1006E4001A6B02F004020192019A02941A6B42F00E
:1006F40080021A631A6B02F080020292029A039437
:100704001A6B42F001021A631A6B02F0010203929F
:10071400039A04941A6B42F002021A631A6B02F0F1
:1007240002020492049A05941A6B42F008021A63B6
:100734001B6B03F0080305932246284640F2FF3161
:10074400059B00F02FFA22463046202100F02AFAB9
:10075400324B0894284606A94FF40052CDE90623EB
:100764004FF0000800F02CF94FF0000906A92846C4
:1007740040F2FF320123CDE90623CDE9088900F0D8
:100784001FF906A9304649F6C3720323CDE90623AF
:10079400089400F015F9224B089406A9304610225B
:1007A400CDE9062300F00CF9304606A920220123E6
:1007B400CDE90623CDE9088900F002F906A94FF234
:1007C400F772032317480894CDE9062300F0F8F8DC
:1007D40006A928464FF4A0520323CDE90623089422
:1007E40000F0EEF8284606A94FF400620023CDE994
:1007F4000623089400F0E4F80422032306A90A4817
:100804000894CDE9062300F0DBF80CB0BDE8708352
:10081400003802400008024000000240000021109D
:100824000000111000040240000C0240F0B595B025
:100834000022294B0092186C284940F0805018641B
:100844001B6C03F080530093009B01920B6823F40C
:10085400404343F400430B600B680F9203F440439E
:1008640001200193022410234FF4A87104250722C8
:100874000B9008A8019E08940E940C93CDE91031B6
:10088400CDE9125200F096F900B1FEE70346214685
:10089400069300224FF480530F26022702A8CDE9C5
:1008A4000267CDE9042300F077FB044600B1FEE7BC
:1008B40000F00EFC0A4BA3FB00308009FFF7D8FEC2
:1008C4002846FFF7EFFE224621464FF0FF30FFF7A0
:1008D40099FE15B0F0BD00BF003802400070004022
:1008E400D34D621000B585B0FFF73CFEFFF79EFFC5
:1008F400FFF7EAFE00F01CF8094B0A4C93E80700E6
:1009040001AB03C301A908481A8000F073FC204618
:10091400202100F04BF94FF47A70FFF74FFEF6E711
:10092400CC160008000002402C000020FEE700BFA7
:100934000C4B0D4A10B50C211A604FF4E13400221F
:1009440018465C605961C3E902221A61C3E90622B0
:10095400FFF7B4FD00B910BD42210448BDE81040C2
:10096400FFF7E4BF8800002000440040D8160008C8
:100974000268104B9A4200D0704770B586B00023CD
:100984000D4A0093116C0D4841F400311164126C4E
:10099400039302F4003200920C250722022401A9D9
:1009A400009E0493CDE90154059200F009F806B0C5
:1009B40070BD00BF00440040003802400000024007
:1009C4002DE9F04F002383B0D1F800E0DFF8D0C167
:1009D4004FF0010803E00133102B00F0878008FA80
:1009E40003F20EEA0205AA42F5D14E6826F0100A77
:1009F400BAF1020F7DD04FEA43090324D0F800B0C6
:100A040004FA09F4E44306F0030704EA0B0B07FABB
:100A140009F70AF1FF3A47EA0B07BAF1010F076039
:100A240040F28D80C7688A683C4002FA09F222438A
:100A3400C260F200CFD5554C00220192626C42F4A0
:100A440080426264626C23F0030707F1804702F47A
:100A5400804207F59C37019203F00304019AD7F80A
:100A64000890A4000F22A24029EA020A484A9042B0
:100A740014D002F58062904274D0464A904276D0F7
:100A8400454A90427AD0454A90420CBF4FF004093F
:100A94004FF0070909FA04F44AEA040AC7F808A05F
:100AA400DCF80020EC43F70354BF22402A43CCF87F
:100AB4000020DCF80420B70354BF22402A43CCF8BA
:100AC4000420DCF80820F70254BF22402A43CCF863
:100AD4000820DCF80C20B60203F1010354BF2240C5
:100AE4002A43102BCCF80C207FF479AF03B0BDE877
:100AF400F08F4FEAD30900EB890903F00707D9F80F
:100B04002040BF004FF00F0B0BFA07FB24EA0B0A3F
:100B14000C69BC4044EA0A04C9F820404FEA43097E
:100B24000324D0F800A004FA09F4E44306F0030710
:100B34000AEA040A07FA09F747EA0A070760876816
:100B440007EA040ACF6807FA09F747EA0A07876041
:100B5400D0F804A0C6F300172AEA02029F40174304
:100B640047605FE708FA04F44AEA040A96E74FF09C
:100B7400020909FA04F44AEA040A8FE74FF0030968
:100B840009FA04F44AEA040A88E700BF003802407C
:100B94000000024000080240000C02400010024025
:100BA400003C014002B9090481617047436959401E
:100BB40041617047002800F06D812DE9F041036820
:100BC400DD0782B004462FD5AD498A6802F00C02D5
:100BD400042A00F0ED808A6802F00C02082A00F072
:100BE400E3806368B3F5803F00F0EC80B3F5A02F99
:100BF40000F05281A24D2A6822F480322A602A68C9
:100C040022F480222A60002B40F0E180FFF7D0FC20
:100C1400064605E0FFF7CCFC801B642800F2018146
:100C24002B689B03F6D423689F0728D5944A9168C0
:100C340011F00C0F00F09B80916801F00C01082961
:100C440000F09180E368002B00F008818D4B8C4DFF
:100C540001221A60FFF7ACFC064605E0FFF7A8FC8A
:100C6400801B022800F2DD802B689807F6D52B68DC
:100C7400226923F0F80343EAC2032B6023681A07AE
:100C84005DD458073BD57E4A136C13F0805340F073
:100C940089800193136C43F080531364136C03F045
:100CA40080530193019B0126774D2B68D90540F1B0
:100CB400A880A368012B00F0B880052B00F02881E0
:100CC4006F4D2A6F22F001022A672A6F22F0040274
:100CD4002A67002B40F0AE80FFF76AFC41F28837A8
:100CE400804606E0FFF764FCA0EB0800B84200F27F
:100CF40098802B6F9807F5D4002E40F0D780A36915
:100D0400CBB15F4DAA6802F00C02082A36D0022B40
:100D14005E4B4FF000021A6000F0CE80FFF748FCF3
:100D24002C46054604E0FFF743FC401B022878D814
:100D340023689B01F7D4002002B0BDE8F081636909
:100D440003B3534B4E4D01221A60FFF731FC0646A4
:100D540004E0FFF72DFC801B022862D86B6F9B0711
:100D6400F7D523688DE7526856023FF56BAF444AC6
:100D74001268950739D5E268012A36D0012002B0FD
:100D8400BDE8F081424A3E4D1360FFF711FC064670
:100D940004E0FFF70DFC801B022842D86B6F9F070D
:100DA400F7D4DEE700267FE74A6850027FF519AFE3
:100DB400334A126891037FF537AF6268002A7FF4E3
:100DC40033AFDBE72E4A136843F480331360FFF735
:100DD400EFFB2B4D064604E0FFF7EAFB801B64287B
:100DE4001FD82B689A03F7D51DE7254920690A689F
:100DF40022F0F80242EAC0020A601A077FF541AF06
:100E04009DE72B6843F480732B60FFF7D1FB074603
:100E14002B68DA053FF54DAFFFF7CAFBC01B02286C
:100E2400F6D9032002B0BDE8F081154A136F43F0F0
:100E340001031367FFF7BCFB114D804641F288376D
:100E440005E0FFF7B5FBA0EB0800B842E9D82B6F2B
:100E54009B07F6D5002E3FF452AF27E0094A084D10
:100E64001360FFF7A5FB064604E0FFF7A1FB801B18
:100E74000228D6D82B689907F7D42368FFE600BF69
:100E840000380240000047420070004060004742C2
:100E9400800E474201207047224B1A6842F4802298
:100EA4001A601A6842F480321A6090E71D4A136C83
:100EB40023F08053136422E7FFF77AFB064604E02D
:100EC400FFF776FB801B0228ABD82B689901F7D477
:100ED400D4E90736D4E90902E16A124C334343EA00
:100EE4008013520843EA0163013A0F4943EA02437B
:100EF40001226B600A60FFF75BFB054604E0FFF725
:100F040057FB401B02288CD823689A01F7D512E7B7
:100F1400044B1A6F42F004021A671A6F42F001027E
:100F24001A6787E70038024060004742174908B54E
:100F34008B6803F00C03042B1BD0082B17D14A68D1
:100F44004B6813F4800302F03F0214D1496810483F
:100F5400C1F38811A1FB0001FFF71AF90B4B5B6881
:100F6400C3F3014301335B00B0FBF3F008BD084851
:100F740008BD084808BD4B680648C3F38813A3FBA3
:100F840000010023FFF704F9E8E700BF003802403E
:100F94000024F40000127A0060B1494A136803F097
:100FA4000F038B4208D2CBB21370136803F00F0304
:100FB4008B4201D00120704703682DE9F0419C0762
:100FC40014D55A0704D53F4CA26842F4E052A260FB
:100FD4001F0704D53B4CA26842F46042A260394C1E
:100FE4008568A26822F0F0022A43A260DE078046E8
:100FF4000C4622D54268012A5BD0931E012B314B4B
:101004001B6853D9990725D52E4DAB6823F00303EC
:101014001343AB60FFF7CCFA41F28836074604E08D
:10102400FFF7C6FAC01BB04248D8AB68D8F8042012
:1010340003F00C03B3EB820FF2D1214A136803F0DF
:101044000F03A34209D9E3B21370136803F00F032B
:10105400A34202D00120BDE8F081D8F800305A073D
:1010640007D51849D8F80C008A6822F4E0520243E4
:101074008A601B0708D5134AD8F81010936823F424
:10108400604343EAC1039360FFF750FF0D4B0E49E1
:101094009B680E4AC3F30313CB5C20FA03F30020CE
:1010A4001360FFF73BFA0020BDE8F0819801ABD450
:1010B400D0E7044B1B689D03A6D4CBE70320CAE703
:1010C400003C024000380240E416000808000020FA
:1010D400014B1868704700BF08000020044B054A04
:1010E4009B680549C3F382230868D35CD8407047E2
:1010F40000380240F416000808000020044B054A9A
:101104009B680549C3F342330868D35CD8407047F1
:1011140000380240F41600080800002008B5072033
:10112400FFF75EFA002211466FF00B00FFF76AFA30
:10113400002211466FF00A00FFF764FA00221146FC
:101144006FF00900FFF75EFA002211466FF0040009
:10115400FFF758FA002211466FF00300FFF752FA26
:10116400002211466FF00100FFF74CFA00221146ED
:101174004FF0FF30BDE80840FFF744BAF8B5054624
:10118400B0F84410006C0122FFF70CFDB5F84C10C8
:10119400A86C0022FFF706FD0A20FFF70FFAB5F846
:1011A4005410286D0122FFF7FDFC2F1D002495F833
:1011B4005A30B5F8582055F8346037F834C01A431B
:1011C400224112F0010361464FF00102304602BF92
:1011D4001A46614630460134FFF7E4FC0A2CE6D196
:1011E4000022B5F85410286DFFF7DCFC002385F8C5
:1011F4005A30F8BDF8B504461022042040230D46A9
:101204000826A0804FF480718020A282A3844FF42A
:1012140000720223A681A085A18601204FF40061FB
:10122400A287A4F844300022324BA4F84C002026B4
:10123400A4F8541084F85A202360A3602361A361A6
:101244002362A3622363A3632364A364236514203A
:10125400A683FFF7B3F9A4F85860AB796979EA7902
:10126400DB0043EA011343EA820384F85A30204640
:10127400FFF784FF0520FFF7A1F90327A4F85860BE
:10128400AB796979EA79DB0043EA011343EA820323
:1012940084F85A302046FFF771FF0120FFF78EF9DA
:1012A400013FEBD10120FFF789F90823A4F8583056
:1012B400EB78A9782A795B0043EA8103134384F825
:1012C4005A3001252046FFF759FF2846FFF776F9E3
:1012D400204684F85A70A4F85850FFF74FFF284668
:1012E400FFF76CF90223A4F858302046BDE8F84013
:1012F400FFF744BF00080240704700BF704700BFBB
:1013040008B5FFF749F9BDE80840FFF7D9B900BFB0
:101314001049114BD1F8882042F4700210B4C1F87E
:1013240088201A680D4C002042F001021A6098606F
:101334001A6822F0847222F480321A605C601A689F
:101344004FF0006422F480221A60D8608C605DF84B
:10135400044B704700ED00E00038024010300024D8
:10136400DFF834D0002103E00C4B5B5843500431C8
:101374000B480C4B42189A42F6D30B4A02E0002366
:1013840042F8043B094B9A42F9D3FFF7C1FF00F03E
:1013940011F8FFF7A7FA7047008001200C17000826
:1013A400000000200C0000200C000020C8000020D9
:1013B400FEE7000070B50D4D0D4C641BA410002613
:1013C400A64209D10B4D0C4C00F072F9641BA41019
:1013D4000026A64205D170BD55F8043B9847013656
:1013E400EEE755F8043B98470136F2E70417000886
:1013F4000417000804170008081700082DE9F04F27
:10140400099F154604468E461E46002B40F0CC80AC
:101414008A42B2FA82FC4CD9BCF1000F0BD0CCF159
:10142400200801FA0CFE20FA08F802FA0CF548EA42
:101434000E0E00FA0CF44FEA15491FFA85F8BEFBAC
:10144400F9FA210C09FB1AE30AFB08FB41EA0343FE
:101454009B452AD9EB180AF1FF3004D29B4502D9E7
:10146400AAF102002B44A3EB0B03A4B2B3FBF9F2E1
:1014740009FB123302FB08F844EA0344A04516D9D9
:101484002C1902F1FF3303D2A04501D9931E2C4439
:10149400A4EB080443EA004027B124FA0CF4002327
:1014A4003C607B603146BDE8F08F5046DBE7134675
:1014B400EEE702B9FFDEBCF1000F2ED18B1A012634
:1014C4004FEA154EAAB2B3FBFEF8210C0EFB1833FB
:1014D40008FB02F941EA0343994561D9EB1808F185
:1014E400FF3004D2994502D9A8F102002B44A3EBA2
:1014F4000903A4B2B3FBFEF10EFB11334A4344EAE1
:101504000344A2424ED92C1901F1FF3303D2A24263
:1015140001D98B1E2C44A41ABCE7CCF1200E02FA8C
:101524000CF521FA0EF901FA0CF320FA0EFE4EEA3C
:1015340003034FEA154800FA0CF4B9FBF8F11FFA5B
:1015440085FE08FB1192180C01FB0EF640EA0242DC
:10155400964221D9AA1801F1FF3003D2964201D94B
:10156400881E2A44921B9BB2B2FBF8F908FB19228D
:1015740009FB0EFE43EA02439E450FD9EB1809F11D
:10158400FF3604D29E4502D9A9F102062B44A3EBEF
:101594000E0346EA004693E70846E3E74E46F6E7BD
:1015A4004046A4E70B46B6E78B4205D90FB1C7E91D
:1015B40000010026304675E7B3FA83FCBCF1000F46
:1015C4000FD18B4201D3824209D8841A61EB030EF6
:1015D4000120002F6AD0C7E9004E002662E760466A
:1015E400F7E7CCF1200E03FA0CF322FA0EF521FAF8
:1015F4000EF41D4301FA0CF320FA0EF10B434FEAEB
:10160400154A00FA0CF6B4FBFAF91FFA85F80AFB3E
:1016140019401C0C09FB08F144EA0044A14202FAF7
:101624000CF23FD92C1909F1FF3004D2A14202D99E
:10163400A9F102002C44641A9BB2B4FBFAF90AFB28
:10164400194409FB08F843EA044188452CD9691870
:1016540009F1FF3304D2884502D9A9F102032944D0
:1016640043EA0040A1EB0801A0FB02894945C246B8
:101674004C4602D306D1464504D2B8EB020A69EBC4
:101684000504013897B1B6EB0A0361EB040606FAC8
:101694000EFE23FA0CF34EEA030326FA0CF6C7E90E
:1016A40000369AE74846C6E74B46D9E73E46F9E690
:1016B400F8B500BFF8BC08BC9E467047F8B500BF3B
:0816C400F8BC08BC9E4670470B
:1016CC000100010101010100000000005372632FB1
:1016DC0075736172742E630000000000000000003E
:1016EC0001020304060708090000000001020304BC
:0816FC0004FDFF7F0100000066
:04170400ED010008EB
:04170800C90100080B
:0C170C0001000000100000000024F400A8
:040000050800136577
:00000001FF
